{
  "contractName": "ballotLib",
  "abi": [
    {
      "inputs": [
        {
          "internalType": "address",
          "name": "_eternalStorage",
          "type": "address"
        }
      ],
      "name": "getNumberOfVotes",
      "outputs": [
        {
          "internalType": "uint256",
          "name": "",
          "type": "uint256"
        }
      ],
      "stateMutability": "view",
      "type": "function",
      "constant": true
    }
  ],
  "bytecode": "0x6103f5610053600b82828239805160001a607314610046577f4e487b7100000000000000000000000000000000000000000000000000000000600052600060045260246000fd5b30600052607381538281f3fe73000000000000000000000000000000000000000030146080604052600436106100405760003560e01c80635ee1ae81146100455780638d50ee2c14610075575b600080fd5b61005f600480360381019061005a9190610220565b61009e565b60405161006c919061032b565b60405180910390f35b81801561008157600080fd5b5061009c6004803603810190610097919061024d565b610150565b005b60008173ffffffffffffffffffffffffffffffffffffffff1663bdc963d87ff2203813fc6277042a63750c3bf1830873c2d833ed7fc455dac19fa65a26c3dd6040518263ffffffff1660e01b81526004016100f991906102e7565b60206040518083038186803b15801561011157600080fd5b505afa158015610125573d6000803e3d6000fd5b505050506040513d601f19601f82011682018060405250810190610149919061028d565b9050919050565b8173ffffffffffffffffffffffffffffffffffffffff16633562fd207ff2203813fc6277042a63750c3bf1830873c2d833ed7fc455dac19fa65a26c3dd836040518363ffffffff1660e01b81526004016101ab929190610302565b600060405180830381600087803b1580156101c557600080fd5b505af11580156101d9573d6000803e3d6000fd5b505050505050565b6000813590506101f081610391565b92915050565b600081359050610205816103a8565b92915050565b60008151905061021a816103a8565b92915050565b6000602082840312156102365761023561038c565b5b6000610244848285016101e1565b91505092915050565b600080604083850312156102645761026361038c565b5b6000610272858286016101e1565b9250506020610283858286016101f6565b9150509250929050565b6000602082840312156102a3576102a261038c565b5b60006102b18482850161020b565b91505092915050565b6102c381610358565b82525050565b6102d281610382565b82525050565b6102e181610382565b82525050565b60006020820190506102fc60008301846102ba565b92915050565b600060408201905061031760008301856102ba565b61032460208301846102c9565b9392505050565b600060208201905061034060008301846102d8565b92915050565b600061035182610362565b9050919050565b6000819050919050565b600073ffffffffffffffffffffffffffffffffffffffff82169050919050565b6000819050919050565b600080fd5b61039a81610346565b81146103a557600080fd5b50565b6103b181610382565b81146103bc57600080fd5b5056fea264697066735822122041ff698f08734120a59b54e5aa515a5737f3ee9af3c5edba6209030343fbc14a64736f6c63430008070033",
  "immutableReferences": {},
  "source": "// SPDX-License-Identifier: MIT\npragma solidity 0.8.7;\n\n\n/* Storage contract to hold values */\ncontract EternalStorage {\n\n    mapping(bytes32 => uint) UIntStorage;\n\n    function getUIntValue(bytes32 record) public view returns (uint) {\n        return UIntStorage[record];\n    }\n\n    function setUIntValue(bytes32 record, uint value) public {\n        UIntStorage[record] = value;\n    }\n\n    mapping(bytes32 => bool) BooleanStorage;\n\n    function getBooleanValue(bytes32 record) public view returns (bool) {\n        return BooleanStorage[record];\n    }\n\n    function setBooleanValue(bytes32 record, bool value) public {\n        BooleanStorage[record] = value;\n    }\n}\n\nlibrary ballotLib {\n    function getNumberOfVotes(address _eternalStorage) public view returns (uint256) {\n        return EternalStorage(_eternalStorage).getUIntValue(keccak256('votes'));\n    }\n\n    function setVoteCount(address _eternalStorage, uint _voteCount) public {\n        EternalStorage(_eternalStorage).setUIntValue(keccak256('votes'), _voteCount);\n    }\n}\n\n/* Ballot contract handles the logic */\ncontract Ballot {\n    using ballotLib for address;\n    address eternalStorage;\n\n    constructor(address _eternalStorage) {\n        eternalStorage = _eternalStorage;\n    }\n\n    function getNumberOfVotes() public view returns(uint) {\n        return eternalStorage.getNumberOfVotes();\n    }\n\n    function vote() public {\n        eternalStorage.setVoteCount(eternalStorage.getNumberOfVotes() + 1);\n    }\n}",
  "sourcePath": "/home/dev/Desktop/Sol/other/BlockOnAir/Storage/contracts/EternalStorage.sol",
  "compiler": {
    "name": "solc",
    "version": "0.8.7+commit.e28d00a7.Emscripten.clang"
  },
  "schemaVersion": "3.4.5",
  "updatedAt": "2022-05-25T22:45:08.795Z",
  "networkType": "ethereum",
  "devdoc": {
    "kind": "dev",
    "methods": {},
    "version": 1
  },
  "userdoc": {
    "kind": "user",
    "methods": {},
    "version": 1
  }
}