{
  "contractName": "Ballot2",
  "abi": [
    {
      "inputs": [
        {
          "internalType": "address",
          "name": "_eternalStorage",
          "type": "address"
        }
      ],
      "stateMutability": "nonpayable",
      "type": "constructor"
    },
    {
      "inputs": [],
      "name": "getNumberOfVotes",
      "outputs": [
        {
          "internalType": "uint256",
          "name": "",
          "type": "uint256"
        }
      ],
      "stateMutability": "view",
      "type": "function",
      "constant": true
    },
    {
      "inputs": [],
      "name": "vote",
      "outputs": [],
      "stateMutability": "nonpayable",
      "type": "function"
    }
  ],
  "bytecode": "0x608060405234801561001057600080fd5b506040516108153803806108158339818101604052810190610032919061008d565b806000806101000a81548173ffffffffffffffffffffffffffffffffffffffff021916908373ffffffffffffffffffffffffffffffffffffffff16021790555050610108565b600081519050610087816100f1565b92915050565b6000602082840312156100a3576100a26100ec565b5b60006100b184828501610078565b91505092915050565b60006100c5826100cc565b9050919050565b600073ffffffffffffffffffffffffffffffffffffffff82169050919050565b600080fd5b6100fa816100ba565b811461010557600080fd5b50565b6106fe806101176000396000f3fe608060405234801561001057600080fd5b50600436106100365760003560e01c8063632a9a521461003b578063cee024dc14610045575b600080fd5b610043610063565b005b61004d610374565b60405161005a9190610573565b60405180910390f35b6000151560008054906101000a900473ffffffffffffffffffffffffffffffffffffffff1673ffffffffffffffffffffffffffffffffffffffff1673__ballotLib2____________________________63f2c03d8990916040518263ffffffff1660e01b81526004016100d6919061050f565b60206040518083038186803b1580156100ee57600080fd5b505af4158015610102573d6000803e3d6000fd5b505050506040513d601f19601f820116820180604052508101906101269190610465565b151514610168576040517f08c379a000000000000000000000000000000000000000000000000000000000815260040161015f90610553565b60405180910390fd5b60008054906101000a900473ffffffffffffffffffffffffffffffffffffffff1673ffffffffffffffffffffffffffffffffffffffff1673__ballotLib2____________________________636f82be0990916040518263ffffffff1660e01b81526004016101d7919061050f565b60006040518083038186803b1580156101ef57600080fd5b505af4158015610203573d6000803e3d6000fd5b5050505060008054906101000a900473ffffffffffffffffffffffffffffffffffffffff1673ffffffffffffffffffffffffffffffffffffffff1673__ballotLib2____________________________638d50ee2c9091600160008054906101000a900473ffffffffffffffffffffffffffffffffffffffff1673ffffffffffffffffffffffffffffffffffffffff1673__ballotLib2____________________________635ee1ae8190916040518263ffffffff1660e01b81526004016102cb919061050f565b60206040518083038186803b1580156102e357600080fd5b505af41580156102f7573d6000803e3d6000fd5b505050506040513d601f19601f8201168201806040525081019061031b9190610492565b610325919061059f565b6040518363ffffffff1660e01b815260040161034292919061052a565b60006040518083038186803b15801561035a57600080fd5b505af415801561036e573d6000803e3d6000fd5b50505050565b60008060009054906101000a900473ffffffffffffffffffffffffffffffffffffffff1673ffffffffffffffffffffffffffffffffffffffff1673__ballotLib2____________________________635ee1ae8190916040518263ffffffff1660e01b81526004016103e6919061050f565b60206040518083038186803b1580156103fe57600080fd5b505af4158015610412573d6000803e3d6000fd5b505050506040513d601f19601f820116820180604052508101906104369190610492565b905090565b60008151905061044a8161069a565b92915050565b60008151905061045f816106b1565b92915050565b60006020828403121561047b5761047a61066c565b5b60006104898482850161043b565b91505092915050565b6000602082840312156104a8576104a761066c565b5b60006104b684828501610450565b91505092915050565b6104c8816105f5565b82525050565b60006104db60178361058e565b91506104e682610671565b602082019050919050565b6104fa81610633565b82525050565b61050981610633565b82525050565b600060208201905061052460008301846104bf565b92915050565b600060408201905061053f60008301856104bf565b61054c6020830184610500565b9392505050565b6000602082019050818103600083015261056c816104ce565b9050919050565b600060208201905061058860008301846104f1565b92915050565b600082825260208201905092915050565b60006105aa82610633565b91506105b583610633565b9250827fffffffffffffffffffffffffffffffffffffffffffffffffffffffffffffffff038211156105ea576105e961063d565b5b828201905092915050565b600061060082610613565b9050919050565b60008115159050919050565b600073ffffffffffffffffffffffffffffffffffffffff82169050919050565b6000819050919050565b7f4e487b7100000000000000000000000000000000000000000000000000000000600052601160045260246000fd5b600080fd5b7f557365722068617320616c726561647920766f7465642e000000000000000000600082015250565b6106a381610607565b81146106ae57600080fd5b50565b6106ba81610633565b81146106c557600080fd5b5056fea26469706673582212204c19a5e30c5595851143d1a5a00d373715776f0509a47d07b3ca9852f113613564736f6c63430008070033",
  "immutableReferences": {},
  "source": "// SPDX-License-Identifier: MIT\npragma solidity 0.8.7;\n\n\n/* Storage contract to hold values */\ncontract EternalStorage {\n\n    mapping(bytes32 => uint) UIntStorage;\n\n    function getUIntValue(bytes32 record) public view returns (uint) {\n        return UIntStorage[record];\n    }\n\n    function setUIntValue(bytes32 record, uint value) public {\n        UIntStorage[record] = value;\n    }\n\n    mapping(bytes32 => bool) BooleanStorage;\n\n    function getBooleanValue(bytes32 record) public view returns (bool) {\n        return BooleanStorage[record];\n    }\n\n    function setBooleanValue(bytes32 record, bool value) public {\n        BooleanStorage[record] = value;\n    }\n}\n\nlibrary ballotLib {\n    function getNumberOfVotes(address _eternalStorage) public view returns (uint256) {\n        return EternalStorage(_eternalStorage).getUIntValue(keccak256('votes'));\n    }\n\n    function setVoteCount(address _eternalStorage, uint _voteCount) public {\n        EternalStorage(_eternalStorage).setUIntValue(keccak256('votes'), _voteCount);\n    }\n}\n\n/* Ballot contract handles the logic */\ncontract Ballot {\n    using ballotLib for address;\n    address eternalStorage;\n\n    constructor(address _eternalStorage) {\n        eternalStorage = _eternalStorage;\n    }\n\n    function getNumberOfVotes() public view returns(uint) {\n        return eternalStorage.getNumberOfVotes();\n    }\n\n    function vote() public {\n        eternalStorage.setVoteCount(eternalStorage.getNumberOfVotes() + 1);\n    }\n}\n\n/* Upgraded Contracts */\n\nlibrary ballotLib2 {\n    function getNumberOfVotes(address _eternalStorage) public view returns (uint256) {\n        return EternalStorage(_eternalStorage).getUIntValue(keccak256('votes'));\n    }\n\n    function setVoteCount(address _eternalStorage, uint _voteCount) public {\n        EternalStorage(_eternalStorage).setUIntValue(keccak256('votes'), _voteCount);\n    }\n\n    /* Upgrades */\n    function getUserHasVoted(address _eternalStorage) public view returns (bool) {\n        return EternalStorage(_eternalStorage).getBooleanValue(keccak256(abi.encodePacked(\"voted\", msg.sender)));\n    }\n\n    function setUserHasVoted(address _eternalStorage) public {\n        EternalStorage(_eternalStorage).setBooleanValue(keccak256(abi.encodePacked(\"voted\", msg.sender)), true);\n    }\n}\n\ncontract Ballot2 {\n    using ballotLib2 for address;\n    address eternalStorage;\n\n    constructor(address _eternalStorage) {\n        eternalStorage = _eternalStorage;\n    }\n\n    function getNumberOfVotes() public view returns(uint) {\n        return eternalStorage.getNumberOfVotes();\n    }\n\n    function vote() public {\n        /* Upgrades */\n        require(eternalStorage.getUserHasVoted() == false, \"User has already voted.\");\n        eternalStorage.setUserHasVoted();\n        eternalStorage.setVoteCount(eternalStorage.getNumberOfVotes() + 1);\n    }\n}",
  "sourcePath": "/home/maha/Desktop/Dev/SmartContractStorage/contracts/EternalStorage.sol",
  "compiler": {
    "name": "solc",
    "version": "0.8.7+commit.e28d00a7.Emscripten.clang"
  },
  "schemaVersion": "3.4.3",
  "updatedAt": "2022-05-26T04:54:19.296Z",
  "networkType": "ethereum",
  "devdoc": {
    "kind": "dev",
    "methods": {},
    "version": 1
  },
  "userdoc": {
    "kind": "user",
    "methods": {},
    "version": 1
  }
}