{
  "contractName": "ballotLib2",
  "abi": [
    {
      "inputs": [
        {
          "internalType": "address",
          "name": "_eternalStorage",
          "type": "address"
        }
      ],
      "name": "getNumberOfVotes",
      "outputs": [
        {
          "internalType": "uint256",
          "name": "",
          "type": "uint256"
        }
      ],
      "stateMutability": "view",
      "type": "function",
      "constant": true
    },
    {
      "inputs": [
        {
          "internalType": "address",
          "name": "_eternalStorage",
          "type": "address"
        }
      ],
      "name": "getUserHasVoted",
      "outputs": [
        {
          "internalType": "bool",
          "name": "",
          "type": "bool"
        }
      ],
      "stateMutability": "view",
      "type": "function",
      "constant": true
    }
  ],
  "bytecode": "0x61073f610053600b82828239805160001a607314610046577f4e487b7100000000000000000000000000000000000000000000000000000000600052600060045260246000fd5b30600052607381538281f3fe73000000000000000000000000000000000000000030146080604052600436106100565760003560e01c80635ee1ae811461005b5780636f82be091461008b5780638d50ee2c146100b4578063f2c03d89146100dd575b600080fd5b610075600480360381019061007091906103f3565b61010d565b60405161008291906105ed565b60405180910390f35b81801561009757600080fd5b506100b260048036038101906100ad91906103f3565b6101bf565b005b8180156100c057600080fd5b506100db60048036038101906100d69190610420565b610256565b005b6100f760048036038101906100f291906103f3565b6102e7565b6040516101049190610565565b60405180910390f35b60008173ffffffffffffffffffffffffffffffffffffffff1663bdc963d87ff2203813fc6277042a63750c3bf1830873c2d833ed7fc455dac19fa65a26c3dd6040518263ffffffff1660e01b81526004016101689190610580565b60206040518083038186803b15801561018057600080fd5b505afa158015610194573d6000803e3d6000fd5b505050506040513d601f19601f820116820180604052508101906101b8919061048d565b9050919050565b8073ffffffffffffffffffffffffffffffffffffffff16633eba9ed2336040516020016101ec919061053f565b6040516020818303038152906040528051906020012060016040518363ffffffff1660e01b815260040161022192919061059b565b600060405180830381600087803b15801561023b57600080fd5b505af115801561024f573d6000803e3d6000fd5b5050505050565b8173ffffffffffffffffffffffffffffffffffffffff16633562fd207ff2203813fc6277042a63750c3bf1830873c2d833ed7fc455dac19fa65a26c3dd836040518363ffffffff1660e01b81526004016102b19291906105c4565b600060405180830381600087803b1580156102cb57600080fd5b505af11580156102df573d6000803e3d6000fd5b505050505050565b60008173ffffffffffffffffffffffffffffffffffffffff166317e7dd2233604051602001610316919061053f565b604051602081830303815290604052805190602001206040518263ffffffff1660e01b81526004016103489190610580565b60206040518083038186803b15801561036057600080fd5b505afa158015610374573d6000803e3d6000fd5b505050506040513d601f19601f820116820180604052508101906103989190610460565b9050919050565b6000813590506103ae816106c4565b92915050565b6000815190506103c3816106db565b92915050565b6000813590506103d8816106f2565b92915050565b6000815190506103ed816106f2565b92915050565b60006020828403121561040957610408610689565b5b60006104178482850161039f565b91505092915050565b6000806040838503121561043757610436610689565b5b60006104458582860161039f565b9250506020610456858286016103c9565b9150509250929050565b60006020828403121561047657610475610689565b5b6000610484848285016103b4565b91505092915050565b6000602082840312156104a3576104a2610689565b5b60006104b1848285016103de565b91505092915050565b6104cb6104c682610613565b610665565b82525050565b6104da81610625565b82525050565b6104e981610625565b82525050565b6104f881610631565b82525050565b600061050b600583610608565b91506105168261069b565b600582019050919050565b61052a8161065b565b82525050565b6105398161065b565b82525050565b600061054a826104fe565b915061055682846104ba565b60148201915081905092915050565b600060208201905061057a60008301846104e0565b92915050565b600060208201905061059560008301846104ef565b92915050565b60006040820190506105b060008301856104ef565b6105bd60208301846104d1565b9392505050565b60006040820190506105d960008301856104ef565b6105e66020830184610521565b9392505050565b60006020820190506106026000830184610530565b92915050565b600081905092915050565b600061061e8261063b565b9050919050565b60008115159050919050565b6000819050919050565b600073ffffffffffffffffffffffffffffffffffffffff82169050919050565b6000819050919050565b600061067082610677565b9050919050565b60006106828261068e565b9050919050565b600080fd5b60008160601b9050919050565b7f766f746564000000000000000000000000000000000000000000000000000000600082015250565b6106cd81610613565b81146106d857600080fd5b50565b6106e481610625565b81146106ef57600080fd5b50565b6106fb8161065b565b811461070657600080fd5b5056fea26469706673582212200f2c3b9bfa3473673050382c42f450aece5c50e857a7494c99fdec0ad4e1845864736f6c63430008070033",
  "immutableReferences": {},
  "source": "// SPDX-License-Identifier: MIT\npragma solidity 0.8.7;\n\n\n/* Storage contract to hold values */\ncontract EternalStorage {\n\n    mapping(bytes32 => uint) UIntStorage;\n\n    function getUIntValue(bytes32 record) public view returns (uint) {\n        return UIntStorage[record];\n    }\n\n    function setUIntValue(bytes32 record, uint value) public {\n        UIntStorage[record] = value;\n    }\n\n    mapping(bytes32 => bool) BooleanStorage;\n\n    function getBooleanValue(bytes32 record) public view returns (bool) {\n        return BooleanStorage[record];\n    }\n\n    function setBooleanValue(bytes32 record, bool value) public {\n        BooleanStorage[record] = value;\n    }\n}\n\nlibrary ballotLib {\n    function getNumberOfVotes(address _eternalStorage) public view returns (uint256) {\n        return EternalStorage(_eternalStorage).getUIntValue(keccak256('votes'));\n    }\n\n    function setVoteCount(address _eternalStorage, uint _voteCount) public {\n        EternalStorage(_eternalStorage).setUIntValue(keccak256('votes'), _voteCount);\n    }\n}\n\n/* Ballot contract handles the logic */\ncontract Ballot {\n    using ballotLib for address;\n    address eternalStorage;\n\n    constructor(address _eternalStorage) {\n        eternalStorage = _eternalStorage;\n    }\n\n    function getNumberOfVotes() public view returns(uint) {\n        return eternalStorage.getNumberOfVotes();\n    }\n\n    function vote() public {\n        eternalStorage.setVoteCount(eternalStorage.getNumberOfVotes() + 1);\n    }\n}\n\n/* Upgraded Contracts */\n\nlibrary ballotLib2 {\n    function getNumberOfVotes(address _eternalStorage) public view returns (uint256) {\n        return EternalStorage(_eternalStorage).getUIntValue(keccak256('votes'));\n    }\n\n    function setVoteCount(address _eternalStorage, uint _voteCount) public {\n        EternalStorage(_eternalStorage).setUIntValue(keccak256('votes'), _voteCount);\n    }\n\n    /* Upgrades */\n    function getUserHasVoted(address _eternalStorage) public view returns (bool) {\n        return EternalStorage(_eternalStorage).getBooleanValue(keccak256(abi.encodePacked(\"voted\", msg.sender)));\n    }\n\n    function setUserHasVoted(address _eternalStorage) public {\n        EternalStorage(_eternalStorage).setBooleanValue(keccak256(abi.encodePacked(\"voted\", msg.sender)), true);\n    }\n}\n\ncontract Ballot2 {\n    using ballotLib2 for address;\n    address eternalStorage;\n\n    constructor(address _eternalStorage) {\n        eternalStorage = _eternalStorage;\n    }\n\n    function getNumberOfVotes() public view returns(uint) {\n        return eternalStorage.getNumberOfVotes();\n    }\n\n    function vote() public {\n        /* Upgrades */\n        require(eternalStorage.getUserHasVoted() == false, \"User has already voted.\");\n        eternalStorage.setUserHasVoted();\n        eternalStorage.setVoteCount(eternalStorage.getNumberOfVotes() + 1);\n    }\n}",
  "sourcePath": "/home/dev/Desktop/Sol/other/BlockOnAir/Storage/contracts/EternalStorage.sol",
  "compiler": {
    "name": "solc",
    "version": "0.8.7+commit.e28d00a7.Emscripten.clang"
  },
  "schemaVersion": "3.4.5",
  "updatedAt": "2022-05-28T03:13:49.319Z",
  "networkType": "ethereum",
  "devdoc": {
    "kind": "dev",
    "methods": {},
    "version": 1
  },
  "userdoc": {
    "kind": "user",
    "methods": {},
    "version": 1
  }
}