{
  "contractName": "Ballot",
  "abi": [
    {
      "inputs": [
        {
          "internalType": "address",
          "name": "_eternalStorage",
          "type": "address"
        }
      ],
      "stateMutability": "nonpayable",
      "type": "constructor"
    },
    {
      "inputs": [],
      "name": "getNumberOfVotes",
      "outputs": [
        {
          "internalType": "uint256",
          "name": "",
          "type": "uint256"
        }
      ],
      "stateMutability": "view",
      "type": "function",
      "constant": true
    },
    {
      "inputs": [],
      "name": "vote",
      "outputs": [],
      "stateMutability": "nonpayable",
      "type": "function"
    }
  ],
  "bytecode": "0x608060405234801561001057600080fd5b5060405161058f38038061058f8339818101604052810190610032919061008d565b806000806101000a81548173ffffffffffffffffffffffffffffffffffffffff021916908373ffffffffffffffffffffffffffffffffffffffff16021790555050610108565b600081519050610087816100f1565b92915050565b6000602082840312156100a3576100a26100ec565b5b60006100b184828501610078565b91505092915050565b60006100c5826100cc565b9050919050565b600073ffffffffffffffffffffffffffffffffffffffff82169050919050565b600080fd5b6100fa816100ba565b811461010557600080fd5b50565b610478806101176000396000f3fe608060405234801561001057600080fd5b50600436106100365760003560e01c8063632a9a521461003b578063cee024dc14610045575b600080fd5b610043610063565b005b61004d6101d0565b60405161005a919061034a565b60405180910390f35b60008054906101000a900473ffffffffffffffffffffffffffffffffffffffff1673ffffffffffffffffffffffffffffffffffffffff1673__ballotLib_____________________________638d50ee2c9091600160008054906101000a900473ffffffffffffffffffffffffffffffffffffffff1673ffffffffffffffffffffffffffffffffffffffff1673__ballotLib_____________________________635ee1ae8190916040518263ffffffff1660e01b81526004016101279190610306565b60206040518083038186803b15801561013f57600080fd5b505af4158015610153573d6000803e3d6000fd5b505050506040513d601f19601f8201168201806040525081019061017791906102ac565b6101819190610365565b6040518363ffffffff1660e01b815260040161019e929190610321565b60006040518083038186803b1580156101b657600080fd5b505af41580156101ca573d6000803e3d6000fd5b50505050565b60008060009054906101000a900473ffffffffffffffffffffffffffffffffffffffff1673ffffffffffffffffffffffffffffffffffffffff1673__ballotLib_____________________________635ee1ae8190916040518263ffffffff1660e01b81526004016102429190610306565b60206040518083038186803b15801561025a57600080fd5b505af415801561026e573d6000803e3d6000fd5b505050506040513d601f19601f8201168201806040525081019061029291906102ac565b905090565b6000815190506102a68161042b565b92915050565b6000602082840312156102c2576102c1610426565b5b60006102d084828501610297565b91505092915050565b6102e2816103bb565b82525050565b6102f1816103ed565b82525050565b610300816103ed565b82525050565b600060208201905061031b60008301846102d9565b92915050565b600060408201905061033660008301856102d9565b61034360208301846102f7565b9392505050565b600060208201905061035f60008301846102e8565b92915050565b6000610370826103ed565b915061037b836103ed565b9250827fffffffffffffffffffffffffffffffffffffffffffffffffffffffffffffffff038211156103b0576103af6103f7565b5b828201905092915050565b60006103c6826103cd565b9050919050565b600073ffffffffffffffffffffffffffffffffffffffff82169050919050565b6000819050919050565b7f4e487b7100000000000000000000000000000000000000000000000000000000600052601160045260246000fd5b600080fd5b610434816103ed565b811461043f57600080fd5b5056fea2646970667358221220c2ade5de584a7d73e4376d8463c12c2bb42f6381aed10c71d9b92f72386b4d5664736f6c63430008070033",
  "immutableReferences": {},
  "source": "// SPDX-License-Identifier: MIT\npragma solidity 0.8.7;\n\n\n/* Storage contract to hold values */\ncontract EternalStorage {\n\n    mapping(bytes32 => uint) UIntStorage;\n\n    function getUIntValue(bytes32 record) public view returns (uint) {\n        return UIntStorage[record];\n    }\n\n    function setUIntValue(bytes32 record, uint value) public {\n        UIntStorage[record] = value;\n    }\n\n    mapping(bytes32 => bool) BooleanStorage;\n\n    function getBooleanValue(bytes32 record) public view returns (bool) {\n        return BooleanStorage[record];\n    }\n\n    function setBooleanValue(bytes32 record, bool value) public {\n        BooleanStorage[record] = value;\n    }\n}\n\nlibrary ballotLib {\n    function getNumberOfVotes(address _eternalStorage) public view returns (uint256) {\n        return EternalStorage(_eternalStorage).getUIntValue(keccak256('votes'));\n    }\n\n    function setVoteCount(address _eternalStorage, uint _voteCount) public {\n        EternalStorage(_eternalStorage).setUIntValue(keccak256('votes'), _voteCount);\n    }\n}\n\n/* Ballot contract handles the logic */\ncontract Ballot {\n    using ballotLib for address;\n    address eternalStorage;\n\n    constructor(address _eternalStorage) {\n        eternalStorage = _eternalStorage;\n    }\n\n    function getNumberOfVotes() public view returns(uint) {\n        return eternalStorage.getNumberOfVotes();\n    }\n\n    function vote() public {\n        eternalStorage.setVoteCount(eternalStorage.getNumberOfVotes() + 1);\n    }\n}\n\n/* Upgraded Contracts */\n\nlibrary ballotLib2 {\n    function getNumberOfVotes(address _eternalStorage) public view returns (uint256) {\n        return EternalStorage(_eternalStorage).getUIntValue(keccak256('votes'));\n    }\n\n    function setVoteCount(address _eternalStorage, uint _voteCount) public {\n        EternalStorage(_eternalStorage).setUIntValue(keccak256('votes'), _voteCount);\n    }\n\n    /* Upgrades */\n    function getUserHasVoted(address _eternalStorage) public view returns (bool) {\n        return EternalStorage(_eternalStorage).getBooleanValue(keccak256(abi.encodePacked(\"voted\", msg.sender)));\n    }\n\n    function setUserHasVoted(address _eternalStorage) public {\n        EternalStorage(_eternalStorage).setBooleanValue(keccak256(abi.encodePacked(\"voted\", msg.sender)), true);\n    }\n}\n\ncontract Ballot2 {\n    using ballotLib2 for address;\n    address eternalStorage;\n\n    constructor(address _eternalStorage) {\n        eternalStorage = _eternalStorage;\n    }\n\n    function getNumberOfVotes() public view returns(uint) {\n        return eternalStorage.getNumberOfVotes();\n    }\n\n    function vote() public {\n        /* Upgrades */\n        require(eternalStorage.getUserHasVoted() == false, \"User has already voted.\");\n        eternalStorage.setUserHasVoted();\n        eternalStorage.setVoteCount(eternalStorage.getNumberOfVotes() + 1);\n    }\n}",
  "sourcePath": "/home/dev/Desktop/Sol/other/BlockOnAir/Storage/contracts/EternalStorage.sol",
  "compiler": {
    "name": "solc",
    "version": "0.8.7+commit.e28d00a7.Emscripten.clang"
  },
  "schemaVersion": "3.4.5",
  "updatedAt": "2022-05-28T03:13:49.313Z",
  "networkType": "ethereum",
  "devdoc": {
    "kind": "dev",
    "methods": {},
    "version": 1
  },
  "userdoc": {
    "kind": "user",
    "methods": {},
    "version": 1
  }
}