{
  "contractName": "EIP1822Final",
  "abi": [
    {
      "inputs": [],
      "name": "constructor1",
      "outputs": [],
      "stateMutability": "nonpayable",
      "type": "function"
    },
    {
      "inputs": [],
      "name": "increment",
      "outputs": [],
      "stateMutability": "nonpayable",
      "type": "function"
    },
    {
      "inputs": [],
      "name": "myUint",
      "outputs": [
        {
          "internalType": "uint256",
          "name": "",
          "type": "uint256"
        }
      ],
      "stateMutability": "view",
      "type": "function"
    },
    {
      "inputs": [],
      "name": "owner",
      "outputs": [
        {
          "internalType": "address",
          "name": "",
          "type": "address"
        }
      ],
      "stateMutability": "view",
      "type": "function"
    },
    {
      "inputs": [],
      "name": "proxiableUUID",
      "outputs": [
        {
          "internalType": "bytes32",
          "name": "",
          "type": "bytes32"
        }
      ],
      "stateMutability": "pure",
      "type": "function"
    },
    {
      "inputs": [
        {
          "internalType": "address",
          "name": "newCode",
          "type": "address"
        }
      ],
      "name": "updateCode",
      "outputs": [],
      "stateMutability": "nonpayable",
      "type": "function"
    }
  ],
  "bytecode": "0x608060405234801561001057600080fd5b50610777806100206000396000f3fe608060405234801561001057600080fd5b50600436106100625760003560e01c806306540f7e146100675780634695195414610085578063473be604146100a157806352d1902d146100ab5780638da5cb5b146100c9578063d09de08a146100e7575b600080fd5b61006f6100f1565b60405161007c9190610583565b60405180910390f35b61009f600480360381019061009a91906103fd565b6100f7565b005b6100a9610191565b005b6100b3610262565b6040516100c09190610508565b60405180910390f35b6100d161028d565b6040516100de91906104ed565b60405180910390f35b6100ef6102b1565b005b60015481565b60008054906101000a900473ffffffffffffffffffffffffffffffffffffffff1673ffffffffffffffffffffffffffffffffffffffff163373ffffffffffffffffffffffffffffffffffffffff1614610185576040517f08c379a000000000000000000000000000000000000000000000000000000000815260040161017c90610543565b60405180910390fd5b61018e816102cb565b50565b600073ffffffffffffffffffffffffffffffffffffffff1660008054906101000a900473ffffffffffffffffffffffffffffffffffffffff1673ffffffffffffffffffffffffffffffffffffffff1614610220576040517f08c379a000000000000000000000000000000000000000000000000000000000815260040161021790610563565b60405180910390fd5b336000806101000a81548173ffffffffffffffffffffffffffffffffffffffff021916908373ffffffffffffffffffffffffffffffffffffffff160217905550565b60007fc5f16f0fcc639fa48a6947836d9850f504798523bf8c9a3a87d5876cf622bcf760001b905090565b60008054906101000a900473ffffffffffffffffffffffffffffffffffffffff1681565b600160008154809291906102c4906105f5565b9190505550565b8073ffffffffffffffffffffffffffffffffffffffff166352d1902d6040518163ffffffff1660e01b815260040160206040518083038186803b15801561031157600080fd5b505afa158015610325573d6000803e3d6000fd5b505050506040513d601f19601f82011682018060405250810190610349919061042a565b7fc5f16f0fcc639fa48a6947836d9850f504798523bf8c9a3a87d5876cf622bcf760001b146103ad576040517f08c379a00000000000000000000000000000000000000000000000000000000081526004016103a490610523565b60405180910390fd5b807fc5f16f0fcc639fa48a6947836d9850f504798523bf8c9a3a87d5876cf622bcf75550565b6000813590506103e281610713565b92915050565b6000815190506103f78161072a565b92915050565b6000602082840312156104135761041261066d565b5b6000610421848285016103d3565b91505092915050565b6000602082840312156104405761043f61066d565b5b600061044e848285016103e8565b91505092915050565b610460816105af565b82525050565b61046f816105c1565b82525050565b6000610482600e8361059e565b915061048d82610672565b602082019050919050565b60006104a5602c8361059e565b91506104b08261069b565b604082019050919050565b60006104c860138361059e565b91506104d3826106ea565b602082019050919050565b6104e7816105eb565b82525050565b60006020820190506105026000830184610457565b92915050565b600060208201905061051d6000830184610466565b92915050565b6000602082019050818103600083015261053c81610475565b9050919050565b6000602082019050818103600083015261055c81610498565b9050919050565b6000602082019050818103600083015261057c816104bb565b9050919050565b600060208201905061059860008301846104de565b92915050565b600082825260208201905092915050565b60006105ba826105cb565b9050919050565b6000819050919050565b600073ffffffffffffffffffffffffffffffffffffffff82169050919050565b6000819050919050565b6000610600826105eb565b91507fffffffffffffffffffffffffffffffffffffffffffffffffffffffffffffffff8214156106335761063261063e565b5b600182019050919050565b7f4e487b7100000000000000000000000000000000000000000000000000000000600052601160045260246000fd5b600080fd5b7f4e6f7420636f6d70617469626c65000000000000000000000000000000000000600082015250565b7f4f6e6c79206f776e657220697320616c6c6f77656420746f20706572666f726d60008201527f207468697320616374696f6e0000000000000000000000000000000000000000602082015250565b7f416c726561647920696e697469616c697a656400000000000000000000000000600082015250565b61071c816105af565b811461072757600080fd5b50565b610733816105c1565b811461073e57600080fd5b5056fea26469706673582212203c1daecbd2d859cc216cfe4151d24b627f50ac03de678c65f6b7428e96f6e6d164736f6c63430008070033",
  "immutableReferences": {},
  "source": "// SPDX-License-Identifier: MIT\npragma solidity 0.8.7;\n\ncontract EIP1822Proxy {\n    // Code position in storage is keccak256(\"PROXIABLE\") = \"0xc5f16f0fcc639fa48a6947836d9850f504798523bf8c9a3a87d5876cf622bcf7\n    constructor(bytes memory constructData, address contractLogic) {\n        // Save address\n        assembly { \n            sstore(0xc5f16f0fcc639fa48a6947836d9850f504798523bf8c9a3a87d5876cf622bcf7, contractLogic)\n        }\n        (bool success, bytes memory result) = contractLogic.delegatecall(constructData);\n        require(success, \"Construction failed\");\n    }\n\n    fallback() external payable {\n        assembly {\n            let contractLogic := sload(0xc5f16f0fcc639fa48a6947836d9850f504798523bf8c9a3a87d5876cf622bcf7)\n            calldatacopy(0x0, 0x0, calldatasize())\n            let success := delegatecall(sub(gas(), 10000), contractLogic, 0x0, calldatasize(), 0, 0)\n            let retSz := returndatasize()\n            returndatacopy(0, 0, retSz)\n            switch success\n            case 0 {\n                revert(0, retSz)\n            }\n            default {\n                return(0, retSz)\n            }\n        }\n    }\n}\n\ncontract Proxiable {\n    // Code position in storage is keccak256(\"PROXIABLE\") = \"0xc5f16f0fcc639fa48a6947836d9850f504798523bf8c9a3a87d5876cf622bcf7\n    \n    function updateCodeAddress(address newAddress) internal {\n        require(\n            bytes32(0xc5f16f0fcc639fa48a6947836d9850f504798523bf8c9a3a87d5876cf622bcf7) == Proxiable(newAddress).proxiableUUID(),\n            \"Not compatible\"\n        );\n        assembly {\n            sstore(0xc5f16f0fcc639fa48a6947836d9850f504798523bf8c9a3a87d5876cf622bcf7, newAddress)\n        }\n    }\n\n    function proxiableUUID() public pure returns (bytes32) {\n        return 0xc5f16f0fcc639fa48a6947836d9850f504798523bf8c9a3a87d5876cf622bcf7;\n    }\n}\n\ncontract MyContract {\n    address public owner;\n    uint public myUint;\n\n    function constructor1() public {\n        require(owner == address(0), \"Already initialized\");\n        owner = msg.sender;\n    }\n\n    function increment() public {\n        // require(msg.sender == owner, \"Only owner can increment\"); // For example if someone forgot to comment this out before deployment\n        myUint++;\n    }\n}\n\ncontract EIP1822Final is MyContract, Proxiable {\n\n    function updateCode(address newCode) onlyOwner public {\n        updateCodeAddress(newCode);\n    }\n\n    modifier onlyOwner() {\n        require(msg.sender == owner, \"Only owner is allowed to perform this action\");\n        _;\n    }\n}",
  "sourcePath": "/home/dev/Desktop/Sol/other/BlockOnAir/Storage/contracts/EIP1822.sol",
  "compiler": {
    "name": "solc",
    "version": "0.8.7+commit.e28d00a7.Emscripten.clang"
  },
  "schemaVersion": "3.4.5",
  "updatedAt": "2022-05-28T05:39:04.591Z",
  "devdoc": {
    "kind": "dev",
    "methods": {},
    "version": 1
  },
  "userdoc": {
    "kind": "user",
    "methods": {},
    "version": 1
  }
}