{
  "contractName": "EIP897Proxy2",
  "abi": [
    {
      "inputs": [
        {
          "internalType": "address",
          "name": "_otherContract",
          "type": "address"
        }
      ],
      "stateMutability": "nonpayable",
      "type": "constructor"
    },
    {
      "stateMutability": "payable",
      "type": "fallback"
    },
    {
      "inputs": [],
      "name": "otherContractAddress",
      "outputs": [
        {
          "internalType": "address",
          "name": "",
          "type": "address"
        }
      ],
      "stateMutability": "view",
      "type": "function"
    },
    {
      "inputs": [
        {
          "internalType": "address",
          "name": "_otherContract",
          "type": "address"
        }
      ],
      "name": "setOtherAddress",
      "outputs": [],
      "stateMutability": "nonpayable",
      "type": "function"
    }
  ],
  "bytecode": "0x608060405234801561001057600080fd5b50604051610371380380610371833981810160405281019061003291906100b5565b6100418161004760201b60201c565b50610130565b61005a8161005d60201b6100ff1760201c565b50565b806000806101000a81548173ffffffffffffffffffffffffffffffffffffffff021916908373ffffffffffffffffffffffffffffffffffffffff16021790555050565b6000815190506100af81610119565b92915050565b6000602082840312156100cb576100ca610114565b5b60006100d9848285016100a0565b91505092915050565b60006100ed826100f4565b9050919050565b600073ffffffffffffffffffffffffffffffffffffffff82169050919050565b600080fd5b610122816100e2565b811461012d57600080fd5b50565b6102328061013f6000396000f3fe60806040526004361061002d5760003560e01c8063c0a15e991461007b578063f4d36986146100a65761002e565b5b60008060009054906101000a900473ffffffffffffffffffffffffffffffffffffffff16905060405136600082376000803683855af43d806000843e8160008114610077578184f35b8184fd5b34801561008757600080fd5b506100906100cf565b60405161009d9190610193565b60405180910390f35b3480156100b257600080fd5b506100cd60048036038101906100c89190610157565b6100f3565b005b60008054906101000a900473ffffffffffffffffffffffffffffffffffffffff1681565b6100fc816100ff565b50565b806000806101000a81548173ffffffffffffffffffffffffffffffffffffffff021916908373ffffffffffffffffffffffffffffffffffffffff16021790555050565b600081359050610151816101e5565b92915050565b60006020828403121561016d5761016c6101e0565b5b600061017b84828501610142565b91505092915050565b61018d816101ae565b82525050565b60006020820190506101a86000830184610184565b92915050565b60006101b9826101c0565b9050919050565b600073ffffffffffffffffffffffffffffffffffffffff82169050919050565b600080fd5b6101ee816101ae565b81146101f957600080fd5b5056fea26469706673582212208031489985701cb8024ce254a814b2d6cbbc1bf0bfe2a522a994188405ed030864736f6c63430008070033",
  "immutableReferences": {},
  "source": "// SPDX-License-Identifier: MIT\npragma solidity 0.8.7;\n\ncontract EIP897Proxy {\n\n    address public otherContractAddress;\n\n    function setOtherAddressStorage(address _otherContract) internal {\n        otherContractAddress = _otherContract;\n    }\n}\n\ncontract EIP897Storage is EIP897Proxy {\n    address public myAddress;\n    uint public myUint;\n\n    function setAddress(address _address) public {\n        myAddress = _address;\n    }\n\n    function setUint(uint _uint) public {\n        myUint = _uint;\n    }\n}\n\ncontract EIP897Proxy2 is EIP897Proxy {\n\n    constructor(address _otherContract) {\n        setOtherAddress(_otherContract);\n    }\n\n    function setOtherAddress(address _otherContract) public {\n        super.setOtherAddressStorage(_otherContract);\n    }\n\n    fallback() payable external {\n        address _impl = otherContractAddress;\n\n        assembly {\n            let ptr := mload(0x40)\n            calldatacopy(ptr, 0, calldatasize())\n            let result := delegatecall(gas(), _impl, ptr, calldatasize(), 0, 0)\n            let size := returndatasize()\n            returndatacopy(ptr, 0, size)\n            \n            switch result\n            case 0 { revert(ptr, size) }\n            default { return(ptr, size) }\n        }\n    }\n}",
  "sourcePath": "/home/dev/Desktop/Sol/other/BlockOnAir/Storage/contracts/EIP897.sol",
  "compiler": {
    "name": "solc",
    "version": "0.8.7+commit.e28d00a7.Emscripten.clang"
  },
  "schemaVersion": "3.4.5",
  "updatedAt": "2022-05-28T05:48:40.140Z",
  "devdoc": {
    "kind": "dev",
    "methods": {},
    "version": 1
  },
  "userdoc": {
    "kind": "user",
    "methods": {},
    "version": 1
  }
}