{
  "contractName": "EIP897Proxy",
  "abi": [
    {
      "inputs": [],
      "name": "otherContractAddress",
      "outputs": [
        {
          "internalType": "address",
          "name": "",
          "type": "address"
        }
      ],
      "stateMutability": "view",
      "type": "function"
    }
  ],
  "bytecode": "0x608060405234801561001057600080fd5b5060f78061001f6000396000f3fe6080604052348015600f57600080fd5b506004361060285760003560e01c8063c0a15e9914602d575b600080fd5b60336047565b604051603e91906078565b60405180910390f35b60008054906101000a900473ffffffffffffffffffffffffffffffffffffffff1681565b6072816091565b82525050565b6000602082019050608b6000830184606b565b92915050565b6000609a8260a1565b9050919050565b600073ffffffffffffffffffffffffffffffffffffffff8216905091905056fea2646970667358221220f7cbc6ca54abb94617c554204eb854bb8c5d6048a6896023d7078fb71beb855564736f6c63430008070033",
  "immutableReferences": {},
  "source": "// SPDX-License-Identifier: MIT\npragma solidity 0.8.7;\n\ncontract EIP897Proxy {\n\n    address public otherContractAddress;\n\n    function setOtherAddressStorage(address _otherContract) internal {\n        otherContractAddress = _otherContract;\n    }\n}\n\ncontract EIP897Storage is EIP897Proxy {\n    address public myAddress;\n    uint public myUint;\n\n    function setAddress(address _address) public {\n        myAddress = _address;\n    }\n\n    function setUint(uint _uint) public {\n        myUint = _uint;\n    }\n}\n\ncontract EIP897Proxy2 is EIP897Proxy {\n\n    constructor(address _otherContract) {\n        setOtherAddress(_otherContract);\n    }\n\n    function setOtherAddress(address _otherContract) public {\n        super.setOtherAddressStorage(_otherContract);\n    }\n\n    fallback() payable external {\n        address _impl = otherContractAddress;\n\n        assembly {\n            let ptr := mload(0x40)\n            calldatacopy(ptr, 0, calldatasize())\n            let result := delegatecall(gas(), _impl, ptr, calldatasize(), 0, 0)\n            let size := returndatasize()\n            returndatacopy(ptr, 0, size)\n            \n            switch result\n            case 0 { revert(ptr, size) }\n            default { return(ptr, size) }\n        }\n    }\n}",
  "sourcePath": "/home/dev/Desktop/Sol/other/BlockOnAir/Storage/contracts/EIP897.sol",
  "compiler": {
    "name": "solc",
    "version": "0.8.7+commit.e28d00a7.Emscripten.clang"
  },
  "schemaVersion": "3.4.5",
  "updatedAt": "2022-05-28T05:48:40.138Z",
  "devdoc": {
    "kind": "dev",
    "methods": {},
    "version": 1
  },
  "userdoc": {
    "kind": "user",
    "methods": {},
    "version": 1
  }
}