{
  "contractName": "EternalStorage",
  "abi": [
    {
      "inputs": [
        {
          "internalType": "bytes32",
          "name": "record",
          "type": "bytes32"
        }
      ],
      "name": "getUIntValue",
      "outputs": [
        {
          "internalType": "uint256",
          "name": "",
          "type": "uint256"
        }
      ],
      "stateMutability": "view",
      "type": "function",
      "constant": true
    },
    {
      "inputs": [
        {
          "internalType": "bytes32",
          "name": "record",
          "type": "bytes32"
        },
        {
          "internalType": "uint256",
          "name": "value",
          "type": "uint256"
        }
      ],
      "name": "setUIntValue",
      "outputs": [],
      "stateMutability": "nonpayable",
      "type": "function"
    },
    {
      "inputs": [
        {
          "internalType": "bytes32",
          "name": "record",
          "type": "bytes32"
        }
      ],
      "name": "getBooleanValue",
      "outputs": [
        {
          "internalType": "bool",
          "name": "",
          "type": "bool"
        }
      ],
      "stateMutability": "view",
      "type": "function",
      "constant": true
    },
    {
      "inputs": [
        {
          "internalType": "bytes32",
          "name": "record",
          "type": "bytes32"
        },
        {
          "internalType": "bool",
          "name": "value",
          "type": "bool"
        }
      ],
      "name": "setBooleanValue",
      "outputs": [],
      "stateMutability": "nonpayable",
      "type": "function"
    }
  ],
  "bytecode": "0x608060405234801561001057600080fd5b50610359806100206000396000f3fe608060405234801561001057600080fd5b506004361061004c5760003560e01c806317e7dd22146100515780633562fd20146100815780633eba9ed21461009d578063bdc963d8146100b9575b600080fd5b61006b600480360381019061006691906101b8565b6100e9565b6040516100789190610283565b60405180910390f35b61009b60048036038101906100969190610225565b610113565b005b6100b760048036038101906100b291906101e5565b61012e565b005b6100d360048036038101906100ce91906101b8565b61015d565b6040516100e0919061029e565b60405180910390f35b60006001600083815260200190815260200160002060009054906101000a900460ff169050919050565b80600080848152602001908152602001600020819055505050565b806001600084815260200190815260200160002060006101000a81548160ff0219169083151502179055505050565b6000806000838152602001908152602001600020549050919050565b600081359050610188816102de565b92915050565b60008135905061019d816102f5565b92915050565b6000813590506101b28161030c565b92915050565b6000602082840312156101ce576101cd6102d9565b5b60006101dc8482850161018e565b91505092915050565b600080604083850312156101fc576101fb6102d9565b5b600061020a8582860161018e565b925050602061021b85828601610179565b9150509250929050565b6000806040838503121561023c5761023b6102d9565b5b600061024a8582860161018e565b925050602061025b858286016101a3565b9150509250929050565b61026e816102b9565b82525050565b61027d816102cf565b82525050565b60006020820190506102986000830184610265565b92915050565b60006020820190506102b36000830184610274565b92915050565b60008115159050919050565b6000819050919050565b6000819050919050565b600080fd5b6102e7816102b9565b81146102f257600080fd5b50565b6102fe816102c5565b811461030957600080fd5b50565b610315816102cf565b811461032057600080fd5b5056fea2646970667358221220fa23af2ef4fc013b89c7750c981ba0f85ae9f318775214dc3be2a68a765d3a0c64736f6c63430008070033",
  "immutableReferences": {},
  "source": "// SPDX-License-Identifier: MIT\npragma solidity 0.8.7;\n\n\n/* Storage contract to hold values */\ncontract EternalStorage {\n\n    mapping(bytes32 => uint) UIntStorage;\n\n    function getUIntValue(bytes32 record) public view returns (uint) {\n        return UIntStorage[record];\n    }\n\n    function setUIntValue(bytes32 record, uint value) public {\n        UIntStorage[record] = value;\n    }\n\n    mapping(bytes32 => bool) BooleanStorage;\n\n    function getBooleanValue(bytes32 record) public view returns (bool) {\n        return BooleanStorage[record];\n    }\n\n    function setBooleanValue(bytes32 record, bool value) public {\n        BooleanStorage[record] = value;\n    }\n}\n\nlibrary ballotLib {\n    function getNumberOfVotes(address _eternalStorage) public view returns (uint256) {\n        return EternalStorage(_eternalStorage).getUIntValue(keccak256('votes'));\n    }\n\n    function setVoteCount(address _eternalStorage, uint _voteCount) public {\n        EternalStorage(_eternalStorage).setUIntValue(keccak256('votes'), _voteCount);\n    }\n}\n\n/* Ballot contract handles the logic */\ncontract Ballot {\n    using ballotLib for address;\n    address eternalStorage;\n\n    constructor(address _eternalStorage) {\n        eternalStorage = _eternalStorage;\n    }\n\n    function getNumberOfVotes() public view returns(uint) {\n        return eternalStorage.getNumberOfVotes();\n    }\n\n    function vote() public {\n        eternalStorage.setVoteCount(eternalStorage.getNumberOfVotes() + 1);\n    }\n}\n\n/* Upgraded Contracts */\n\nlibrary ballotLib2 {\n    function getNumberOfVotes(address _eternalStorage) public view returns (uint256) {\n        return EternalStorage(_eternalStorage).getUIntValue(keccak256('votes'));\n    }\n\n    function setVoteCount(address _eternalStorage, uint _voteCount) public {\n        EternalStorage(_eternalStorage).setUIntValue(keccak256('votes'), _voteCount);\n    }\n\n    /* Upgrades */\n    function getUserHasVoted(address _eternalStorage) public view returns (bool) {\n        return EternalStorage(_eternalStorage).getBooleanValue(keccak256(abi.encodePacked(\"voted\", msg.sender)));\n    }\n\n    function setUserHasVoted(address _eternalStorage) public {\n        EternalStorage(_eternalStorage).setBooleanValue(keccak256(abi.encodePacked(\"voted\", msg.sender)), true);\n    }\n}\n\ncontract Ballot2 {\n    using ballotLib2 for address;\n    address eternalStorage;\n\n    constructor(address _eternalStorage) {\n        eternalStorage = _eternalStorage;\n    }\n\n    function getNumberOfVotes() public view returns(uint) {\n        return eternalStorage.getNumberOfVotes();\n    }\n\n    function vote() public {\n        /* Upgrades */\n        require(eternalStorage.getUserHasVoted() == false, \"User has already voted.\");\n        eternalStorage.setUserHasVoted();\n        eternalStorage.setVoteCount(eternalStorage.getNumberOfVotes() + 1);\n    }\n}",
  "sourcePath": "/home/maha/Desktop/Dev/SmartContractStorage/contracts/EternalStorage.sol",
  "compiler": {
    "name": "solc",
    "version": "0.8.7+commit.e28d00a7.Emscripten.clang"
  },
  "schemaVersion": "3.4.3",
  "updatedAt": "2022-05-26T04:54:19.204Z",
  "networkType": "ethereum",
  "devdoc": {
    "kind": "dev",
    "methods": {},
    "version": 1
  },
  "userdoc": {
    "kind": "user",
    "methods": {},
    "version": 1
  }
}