{
  "contractName": "Example",
  "abi": [
    {
      "inputs": [
        {
          "internalType": "address",
          "name": "target",
          "type": "address"
        }
      ],
      "name": "replace",
      "outputs": [],
      "stateMutability": "nonpayable",
      "type": "function"
    },
    {
      "inputs": [],
      "name": "initialize",
      "outputs": [],
      "stateMutability": "nonpayable",
      "type": "function"
    },
    {
      "inputs": [],
      "name": "getUint",
      "outputs": [
        {
          "internalType": "uint256",
          "name": "",
          "type": "uint256"
        }
      ],
      "stateMutability": "view",
      "type": "function",
      "constant": true
    },
    {
      "inputs": [
        {
          "internalType": "uint256",
          "name": "value",
          "type": "uint256"
        }
      ],
      "name": "setUint",
      "outputs": [],
      "stateMutability": "nonpayable",
      "type": "function"
    }
  ],
  "bytecode": "0x608060405234801561001057600080fd5b50610468806100206000396000f3fe608060405234801561001057600080fd5b506004361061004b5760003560e01c80620267a4146100505780634ef65c3b1461006e5780638129fc1c1461008a578063cabfb93414610094575b600080fd5b6100586100b0565b604051610065919061035f565b60405180910390f35b610088600480360381019061008391906102db565b6100ba565b005b6100926100c4565b005b6100ae60048036038101906100a991906102ae565b610155565b005b6000600254905090565b8060028190555050565b60206000807e0267a4cc5a02e5a5bac8ff07c5f25b766898f1855576488bdf1bcd0be4be627bffffffffffffffffffffffffffffffffffffffffffffffffffffffff19167bffffffffffffffffffffffffffffffffffffffffffffffffffffffff1916815260200190815260200160002060006101000a81548163ffffffff021916908363ffffffff160217905550565b80600160006101000a81548173ffffffffffffffffffffffffffffffffffffffff021916908373ffffffffffffffffffffffffffffffffffffffff1602179055508073ffffffffffffffffffffffffffffffffffffffff167f8129fc1cf5a76b8b9d76c7ab5059b1685decddb2380c6e4cebb774b7c17ae83f604051602401604051602081830303815290604052907bffffffffffffffffffffffffffffffffffffffffffffffffffffffff19166020820180517bffffffffffffffffffffffffffffffffffffffffffffffffffffffff838183161783525050505060405161023e9190610348565b600060405180830381855af49150503d8060008114610279576040519150601f19603f3d011682016040523d82523d6000602084013e61027e565b606091505b50505050565b60008135905061029381610404565b92915050565b6000813590506102a88161041b565b92915050565b6000602082840312156102c4576102c36103ff565b5b60006102d284828501610284565b91505092915050565b6000602082840312156102f1576102f06103ff565b5b60006102ff84828501610299565b91505092915050565b60006103138261037a565b61031d8185610385565b935061032d8185602086016103cc565b80840191505092915050565b610342816103c2565b82525050565b60006103548284610308565b915081905092915050565b60006020820190506103746000830184610339565b92915050565b600081519050919050565b600081905092915050565b600061039b826103a2565b9050919050565b600073ffffffffffffffffffffffffffffffffffffffff82169050919050565b6000819050919050565b60005b838110156103ea5780820151818401526020810190506103cf565b838111156103f9576000848401525b50505050565b600080fd5b61040d81610390565b811461041857600080fd5b50565b610424816103c2565b811461042f57600080fd5b5056fea2646970667358221220bea89d365e06c847ec9408e7f8a199dc950e45e56cdc2ef5ed952100e73f1dab64736f6c63430008070033",
  "immutableReferences": {},
  "source": "// SPDX-License-Identifier: MIT\npragma solidity 0.8.7;\n\n\nabstract contract Upgradeable {\n\n    mapping(bytes4 => uint32) _sizes;\n    address _dest;\n\n    function initialize() virtual public;\n\n    function replace(address target) public {\n        _dest = target;\n        target.delegatecall(abi.encodeWithSelector(bytes4(keccak256('initialize()'))));\n    }\n}\n\ncontract Dispatcher is Upgradeable {\n\n    constructor(address target) {\n        replace(target);\n    }\n\n    function initialize() override public {\n        // Should only be called on target contracts, not the dispatcher\n        assert(false);\n    }\n\n    fallback() external {\n        bytes4 sig;\n        assembly { sig := calldataload(0) }\n        uint len = _sizes[sig];\n        address target = _dest;\n\n        assembly { \n            // return _dest.delegatecall(msg.data)\n            calldatacopy(0x0, 0x0, calldatasize())\n            let result := delegatecall(sub(gas(), 10000), target, 0x0, calldatasize(), 0, len)\n            return(0, len) // discard any return data\n         }\n    }\n}\n\ncontract Example is Upgradeable {\n    uint _value;\n\n    function initialize() override public {\n        _sizes[bytes4(keccak256(\"getUint()\"))] = 32;\n    }\n\n    function getUint() public view returns (uint) {\n        return _value;\n    }\n\n    function setUint(uint value) public {\n        _value = value;\n    }\n}\n\ncontract ExampleUpgrade is Upgradeable {\n    uint _value;\n\n    function initialize() override public {\n        _sizes[bytes4(keccak256(\"getUint()\"))] = 32;\n    }\n\n    function getUint() public view returns (uint) {\n        return _value * 2;\n    }\n\n    function setUint(uint value) public {\n        _value = value;\n    }\n}",
  "sourcePath": "/home/maha/Desktop/Dev/SmartContractStorage/contracts/FirstProxy.sol",
  "compiler": {
    "name": "solc",
    "version": "0.8.7+commit.e28d00a7.Emscripten.clang"
  },
  "schemaVersion": "3.4.3",
  "updatedAt": "2022-05-26T04:54:19.316Z",
  "networkType": "ethereum",
  "devdoc": {
    "kind": "dev",
    "methods": {},
    "version": 1
  },
  "userdoc": {
    "kind": "user",
    "methods": {},
    "version": 1
  }
}