{
  "contractName": "Factory",
  "abi": [
    {
      "anonymous": false,
      "inputs": [
        {
          "indexed": false,
          "internalType": "address",
          "name": "_addr",
          "type": "address"
        }
      ],
      "name": "Deployed",
      "type": "event"
    },
    {
      "inputs": [
        {
          "internalType": "uint256",
          "name": "salt",
          "type": "uint256"
        },
        {
          "internalType": "bytes",
          "name": "bytecode",
          "type": "bytes"
        }
      ],
      "name": "deploy",
      "outputs": [],
      "stateMutability": "nonpayable",
      "type": "function"
    }
  ],
  "bytecode": "0x608060405234801561001057600080fd5b5061027c806100206000396000f3fe608060405234801561001057600080fd5b506004361061002b5760003560e01c806361ff715f14610030575b600080fd5b61004a60048036038101906100459190610150565b61004c565b005b600082828080601f016020809104026020016040519081016040528093929190818152602001838380828437600081840152601f19601f82011690508083019250505050505050905060008160200182518681836000f5925050507ff40fcec21964ffb566044d083b4073f29f7f7929110ea19e1b3ebe375d89055e816040516100d691906101bf565b60405180910390a15050505050565b60008083601f8401126100fb576100fa61021b565b5b8235905067ffffffffffffffff81111561011857610117610216565b5b60208301915083600182028301111561013457610133610220565b5b9250929050565b60008135905061014a8161022f565b92915050565b6000806000604084860312156101695761016861022a565b5b60006101778682870161013b565b935050602084013567ffffffffffffffff81111561019857610197610225565b5b6101a4868287016100e5565b92509250509250925092565b6101b9816101da565b82525050565b60006020820190506101d460008301846101b0565b92915050565b60006101e5826101ec565b9050919050565b600073ffffffffffffffffffffffffffffffffffffffff82169050919050565b6000819050919050565b600080fd5b600080fd5b600080fd5b600080fd5b600080fd5b6102388161020c565b811461024357600080fd5b5056fea264697066735822122062cbff8316343870a5c292fbcb02699ba6965d89d9a128640dbd9badd8d7126864736f6c63430008070033",
  "immutableReferences": {},
  "source": "//SPDX-License-Identifier: MIT\n\npragma solidity 0.8.7;\n\ncontract Factory {\n    event Deployed(address _addr);\n    function deploy(uint salt, bytes calldata bytecode) public {\n        bytes memory implInitCode = bytecode;\n        address addr;\n        assembly {\n            let encoded_data := add(0x20, implInitCode) // Load init code\n            let encoded_size := mload(implInitCode) // Load init codes length\n            addr := create2(0, encoded_data, encoded_size, salt)\n        }\n        emit Deployed(addr);\n    }\n}\n\ncontract NoConstructor {\n    uint public myUint = 5;\n}",
  "sourcePath": "/home/dev/Desktop/Sol/other/BlockOnAir/Storage/contracts/Create2.sol",
  "compiler": {
    "name": "solc",
    "version": "0.8.7+commit.e28d00a7.Emscripten.clang"
  },
  "schemaVersion": "3.4.5",
  "updatedAt": "2022-05-28T05:39:04.587Z",
  "devdoc": {
    "kind": "dev",
    "methods": {},
    "version": 1
  },
  "userdoc": {
    "kind": "user",
    "methods": {},
    "version": 1
  }
}