{
  "contractName": "MyContract",
  "abi": [
    {
      "inputs": [],
      "name": "myUint",
      "outputs": [
        {
          "internalType": "uint256",
          "name": "",
          "type": "uint256"
        }
      ],
      "stateMutability": "view",
      "type": "function"
    },
    {
      "inputs": [],
      "name": "owner",
      "outputs": [
        {
          "internalType": "address",
          "name": "",
          "type": "address"
        }
      ],
      "stateMutability": "view",
      "type": "function"
    },
    {
      "inputs": [],
      "name": "constructor1",
      "outputs": [],
      "stateMutability": "nonpayable",
      "type": "function"
    },
    {
      "inputs": [],
      "name": "increment",
      "outputs": [],
      "stateMutability": "nonpayable",
      "type": "function"
    }
  ],
  "bytecode": "0x608060405234801561001057600080fd5b50610371806100206000396000f3fe608060405234801561001057600080fd5b506004361061004c5760003560e01c806306540f7e14610051578063473be6041461006f5780638da5cb5b14610079578063d09de08a14610097575b600080fd5b6100596100a1565b6040516100669190610232565b60405180910390f35b6100776100a7565b005b610081610178565b60405161008e91906101f7565b60405180910390f35b61009f61019c565b005b60015481565b600073ffffffffffffffffffffffffffffffffffffffff1660008054906101000a900473ffffffffffffffffffffffffffffffffffffffff1673ffffffffffffffffffffffffffffffffffffffff1614610136576040517f08c379a000000000000000000000000000000000000000000000000000000000815260040161012d90610212565b60405180910390fd5b336000806101000a81548173ffffffffffffffffffffffffffffffffffffffff021916908373ffffffffffffffffffffffffffffffffffffffff160217905550565b60008054906101000a900473ffffffffffffffffffffffffffffffffffffffff1681565b600160008154809291906101af9061029a565b9190505550565b6101bf8161025e565b82525050565b60006101d260138361024d565b91506101dd82610312565b602082019050919050565b6101f181610290565b82525050565b600060208201905061020c60008301846101b6565b92915050565b6000602082019050818103600083015261022b816101c5565b9050919050565b600060208201905061024760008301846101e8565b92915050565b600082825260208201905092915050565b600061026982610270565b9050919050565b600073ffffffffffffffffffffffffffffffffffffffff82169050919050565b6000819050919050565b60006102a582610290565b91507fffffffffffffffffffffffffffffffffffffffffffffffffffffffffffffffff8214156102d8576102d76102e3565b5b600182019050919050565b7f4e487b7100000000000000000000000000000000000000000000000000000000600052601160045260246000fd5b7f416c726561647920696e697469616c697a65640000000000000000000000000060008201525056fea2646970667358221220fcbe7c5ccd24249653b0aae728a43ac2e5a3a1575e8daa84ae9bc03e7ff2c9e264736f6c63430008070033",
  "immutableReferences": {},
  "source": "// SPDX-License-Identifier: MIT\npragma solidity 0.8.7;\n\ncontract EIP1822Proxy {\n    // Code position in storage is keccak256(\"PROXIABLE\") = \"0xc5f16f0fcc639fa48a6947836d9850f504798523bf8c9a3a87d5876cf622bcf7\n    constructor(bytes memory constructData, address contractLogic) {\n        // Save address\n        assembly { \n            sstore(0xc5f16f0fcc639fa48a6947836d9850f504798523bf8c9a3a87d5876cf622bcf7, contractLogic)\n        }\n        (bool success, bytes memory result) = contractLogic.delegatecall(constructData);\n        require(success, \"Construction failed\");\n    }\n\n    fallback() external payable {\n        assembly {\n            let contractLogic := sload(0xc5f16f0fcc639fa48a6947836d9850f504798523bf8c9a3a87d5876cf622bcf7)\n            calldatacopy(0x0, 0x0, calldatasize())\n            let success := delegatecall(sub(gas(), 10000), contractLogic, 0x0, calldatasize(), 0, 0)\n            let retSz := returndatasize()\n            returndatacopy(0, 0, retSz)\n            switch success\n            case 0 {\n                revert(0, retSz)\n            }\n            default {\n                return(0, retSz)\n            }\n        }\n    }\n}\n\ncontract Proxiable {\n    // Code position in storage is keccak256(\"PROXIABLE\") = \"0xc5f16f0fcc639fa48a6947836d9850f504798523bf8c9a3a87d5876cf622bcf7\n    \n    function updateCodeAddress(address newAddress) internal {\n        require(\n            bytes32(0xc5f16f0fcc639fa48a6947836d9850f504798523bf8c9a3a87d5876cf622bcf7) == Proxiable(newAddress).proxiableUUID(),\n            \"Not compatible\"\n        );\n        assembly {\n            sstore(0xc5f16f0fcc639fa48a6947836d9850f504798523bf8c9a3a87d5876cf622bcf7, newAddress)\n        }\n    }\n\n    function proxiableUUID() public pure returns (bytes32) {\n        return 0xc5f16f0fcc639fa48a6947836d9850f504798523bf8c9a3a87d5876cf622bcf7;\n    }\n}\n\ncontract MyContract {\n    address public owner;\n    uint public myUint;\n\n    function constructor1() public {\n        require(owner == address(0), \"Already initialized\");\n        owner = msg.sender;\n    }\n\n    function increment() public {\n        // require(msg.sender == owner, \"Only owner can increment\"); // For example if someone forgot to comment this out before deployment\n        myUint++;\n    }\n}\n\ncontract EIP1822Final is MyContract, Proxiable {\n\n    function updateCode(address newCode) onlyOwner public {\n        updateCodeAddress(newCode);\n    }\n\n    modifier onlyOwner() {\n        require(msg.sender == owner, \"Only owner is allowed to perform this action\");\n        _;\n    }\n}",
  "sourcePath": "/home/dev/Desktop/Sol/other/BlockOnAir/Storage/contracts/EIP1822.sol",
  "compiler": {
    "name": "solc",
    "version": "0.8.7+commit.e28d00a7.Emscripten.clang"
  },
  "schemaVersion": "3.4.5",
  "updatedAt": "2022-05-28T05:39:04.596Z",
  "devdoc": {
    "kind": "dev",
    "methods": {},
    "version": 1
  },
  "userdoc": {
    "kind": "user",
    "methods": {},
    "version": 1
  }
}