{
  "contractName": "NoConstructor",
  "abi": [
    {
      "inputs": [],
      "name": "myUint",
      "outputs": [
        {
          "internalType": "uint256",
          "name": "",
          "type": "uint256"
        }
      ],
      "stateMutability": "view",
      "type": "function"
    }
  ],
  "bytecode": "0x6080604052600560005534801561001557600080fd5b5060b3806100246000396000f3fe6080604052348015600f57600080fd5b506004361060285760003560e01c806306540f7e14602d575b600080fd5b60336047565b604051603e9190605a565b60405180910390f35b60005481565b6054816073565b82525050565b6000602082019050606d6000830184604d565b92915050565b600081905091905056fea2646970667358221220e6434bbaf623486d12c25a00ecc4d4902a5bf0d72b058a9781c50f9dbe2491b664736f6c63430008070033",
  "immutableReferences": {},
  "source": "//SPDX-License-Identifier: MIT\n\npragma solidity 0.8.7;\n\ncontract Factory {\n    event Deployed(address _addr);\n    function deploy(uint salt, bytes calldata bytecode) public {\n        bytes memory implInitCode = bytecode;\n        address addr;\n        assembly {\n            let encoded_data := add(0x20, implInitCode) // Load init code\n            let encoded_size := mload(implInitCode) // Load init codes length\n            addr := create2(0, encoded_data, encoded_size, salt)\n        }\n        emit Deployed(addr);\n    }\n}\n\ncontract NoConstructor {\n    uint public myUint = 5;\n}",
  "sourcePath": "/home/dev/Desktop/Sol/other/BlockOnAir/Storage/contracts/Create2.sol",
  "compiler": {
    "name": "solc",
    "version": "0.8.7+commit.e28d00a7.Emscripten.clang"
  },
  "schemaVersion": "3.4.5",
  "updatedAt": "2022-05-28T05:39:04.588Z",
  "devdoc": {
    "kind": "dev",
    "methods": {},
    "version": 1
  },
  "userdoc": {
    "kind": "user",
    "methods": {},
    "version": 1
  }
}