{
  "contractName": "Storage",
  "abi": [
    {
      "inputs": [],
      "name": "myAddress",
      "outputs": [
        {
          "internalType": "address",
          "name": "",
          "type": "address"
        }
      ],
      "stateMutability": "view",
      "type": "function"
    },
    {
      "inputs": [],
      "name": "myUint",
      "outputs": [
        {
          "internalType": "uint256",
          "name": "",
          "type": "uint256"
        }
      ],
      "stateMutability": "view",
      "type": "function"
    },
    {
      "inputs": [],
      "name": "otherContractAddress",
      "outputs": [
        {
          "internalType": "address",
          "name": "",
          "type": "address"
        }
      ],
      "stateMutability": "view",
      "type": "function"
    },
    {
      "inputs": [
        {
          "internalType": "address",
          "name": "_address",
          "type": "address"
        }
      ],
      "name": "setAddress",
      "outputs": [],
      "stateMutability": "nonpayable",
      "type": "function"
    },
    {
      "inputs": [
        {
          "internalType": "uint256",
          "name": "_uint",
          "type": "uint256"
        }
      ],
      "name": "setMyUint",
      "outputs": [],
      "stateMutability": "nonpayable",
      "type": "function"
    }
  ],
  "bytecode": "0x608060405234801561001057600080fd5b50610309806100206000396000f3fe608060405234801561001057600080fd5b50600436106100575760003560e01c806306540f7e1461005c57806326b85ee11461007a578063c0a15e9914610098578063e30081a0146100b6578063e492fd84146100d2575b600080fd5b6100646100ee565b6040516100719190610249565b60405180910390f35b6100826100f4565b60405161008f919061022e565b60405180910390f35b6100a061011a565b6040516100ad919061022e565b60405180910390f35b6100d060048036038101906100cb91906101b6565b61013e565b005b6100ec60048036038101906100e791906101e3565b610182565b005b60025481565b600160009054906101000a900473ffffffffffffffffffffffffffffffffffffffff1681565b60008054906101000a900473ffffffffffffffffffffffffffffffffffffffff1681565b80600160006101000a81548173ffffffffffffffffffffffffffffffffffffffff021916908373ffffffffffffffffffffffffffffffffffffffff16021790555050565b8060028190555050565b60008135905061019b816102a5565b92915050565b6000813590506101b0816102bc565b92915050565b6000602082840312156101cc576101cb6102a0565b5b60006101da8482850161018c565b91505092915050565b6000602082840312156101f9576101f86102a0565b5b6000610207848285016101a1565b91505092915050565b61021981610264565b82525050565b61022881610296565b82525050565b60006020820190506102436000830184610210565b92915050565b600060208201905061025e600083018461021f565b92915050565b600061026f82610276565b9050919050565b600073ffffffffffffffffffffffffffffffffffffffff82169050919050565b6000819050919050565b600080fd5b6102ae81610264565b81146102b957600080fd5b50565b6102c581610296565b81146102d057600080fd5b5056fea2646970667358221220f9056a3c597fac77e79b0388e124dd40e60133b1ba698dd86ad4121f75e80ddf64736f6c63430008070033",
  "immutableReferences": {},
  "source": "// SPDX-License-Identifier: MIT\npragma solidity 0.8.7;\n\ncontract Proxy {\n\n    address public otherContractAddress;\n\n    function setOtherAddressStorage(address _otherContract) internal {\n        otherContractAddress = _otherContract;\n    }\n}\n\ncontract Storage is Proxy {\n    address public myAddress;\n    uint public myUint;\n\n    function setAddress(address _address) public {\n        myAddress = _address;\n    }\n\n    function setMyUint(uint _uint) public {\n        myUint = _uint;\n    }\n}\n\ncontract Proxy2 is Proxy {\n\n    constructor(address _otherContract) {\n        setOtherAddress(_otherContract);\n    }\n\n    function setOtherAddress(address _otherContract) public {\n        super.setOtherAddressStorage(_otherContract);\n    }\n\n    fallback() payable external {\n        address _impl = otherContractAddress;\n\n        assembly {\n            let ptr := mload(0x40)\n            calldatacopy(ptr, 0, calldatasize())\n            let result := delegatecall(gas(), _impl, ptr, calldatasize(), 0, 0)\n            let size := returndatasize()\n            returndatacopy(ptr, 0, size)\n            \n            switch result\n            case 0 { revert(ptr, size) }\n            default { return(ptr, size) }\n        }\n    }\n}",
  "sourcePath": "/home/dev/Desktop/Sol/other/BlockOnAir/Storage/contracts/EIP897.sol",
  "compiler": {
    "name": "solc",
    "version": "0.8.7+commit.e28d00a7.Emscripten.clang"
  },
  "schemaVersion": "3.4.5",
  "updatedAt": "2022-05-28T03:02:53.774Z",
  "devdoc": {
    "kind": "dev",
    "methods": {},
    "version": 1
  },
  "userdoc": {
    "kind": "user",
    "methods": {},
    "version": 1
  }
}